:100000000AC0FFCF37C0FFCFFFCF1895FFCFFFCF7C
:10001000FFCFFFCF3BC0F894A8950BB7077F0BBF6E
:1000200008ED0CBF002701BF00270EBF0FE50DBF75
:1000300008ED0CBF08E006BF0DE00DBD002707BDB1
:100040000BEE06BD02E00BBD992702E001B904E00A
:1000500002B902E000BB02B3016002BB0BEE0DBBB4
:1000600003E00CBB00270BBB789400270ABF8895E0
:10007000FCCF38C00AB70E7F0ABF0CE32DD000B109
:1000800002FB16F4789421D023D01895939509B3E8
:10009000003011F403D01895992718959330A0F0EB
:1000A000F89405B7026005BF02B30E7F02BB02B130
:1000B000026002B908E810D002B10D7F02B902B3A4
:1000C000016002BB789401D0089505E00ABF8895CD
:1000D000F89408E001BF06C01FEF1A95F1F70A95E2
:0600E000E1F70895FFCFD7
:00000001FF
